{
  "_format": "hh-sol-artifact-1",
  "contractName": "PythDataFeed",
  "sourceName": "contracts/PythDataFeed.sol",
  "abi": [
    {
      "inputs": [
        {
          "internalType": "bytes[]",
          "name": "priceUpdate",
          "type": "bytes[]"
        }
      ],
      "name": "exampleMethod",
      "outputs": [],
      "stateMutability": "payable",
      "type": "function"
    }
  ],
  "bytecode": "0x608060405273dd24f84d36bf92c65f92307595335bdfab5bbd216000806101000a81548173ffffffffffffffffffffffffffffffffffffffff021916908373ffffffffffffffffffffffffffffffffffffffff160217905550348015606357600080fd5b506107a4806100736000396000f3fe60806040526004361061001e5760003560e01c8063e0c297c314610023575b600080fd5b61003d600480360381019061003891906102b8565b61003f565b005b60008060009054906101000a900473ffffffffffffffffffffffffffffffffffffffff1673ffffffffffffffffffffffffffffffffffffffff1663d47eed4584846040518363ffffffff1660e01b815260040161009d929190610489565b602060405180830381865afa1580156100ba573d6000803e3d6000fd5b505050506040513d601f19601f820116820180604052508101906100de91906104e3565b905060008054906101000a900473ffffffffffffffffffffffffffffffffffffffff1673ffffffffffffffffffffffffffffffffffffffff1663ef9e5e288285856040518463ffffffff1660e01b815260040161013c929190610489565b6000604051808303818588803b15801561015557600080fd5b505af1158015610169573d6000803e3d6000fd5b505050505060007fff61491a931112ddf1bd8147cd1b641375f79f5825126d665480874634fd0ace60001b905060008060009054906101000a900473ffffffffffffffffffffffffffffffffffffffff1673ffffffffffffffffffffffffffffffffffffffff1663a4ae35e083603c6040518363ffffffff1660e01b81526004016101f592919061056e565b608060405180830381865afa158015610212573d6000803e3d6000fd5b505050506040513d601f19601f820116820180604052508101906102369190610741565b90505050505050565b6000604051905090565b600080fd5b600080fd5b600080fd5b600080fd5b600080fd5b60008083601f84011261027857610277610253565b5b8235905067ffffffffffffffff81111561029557610294610258565b5b6020830191508360208202830111156102b1576102b061025d565b5b9250929050565b600080602083850312156102cf576102ce610249565b5b600083013567ffffffffffffffff8111156102ed576102ec61024e565b5b6102f985828601610262565b92509250509250929050565b600082825260208201905092915050565b6000819050919050565b600082825260208201905092915050565b82818337600083830152505050565b6000601f19601f8301169050919050565b600061035d8385610320565b935061036a838584610331565b61037383610340565b840190509392505050565b600061038b848484610351565b90509392505050565b600080fd5b600080fd5b600080fd5b600080833560016020038436030381126103c0576103bf61039e565b5b83810192508235915060208301925067ffffffffffffffff8211156103e8576103e7610394565b5b6001820236038313156103fe576103fd610399565b5b509250929050565b6000602082019050919050565b600061041f8385610305565b93508360208402850161043184610316565b8060005b8781101561047757848403895261044c82846103a3565b61045786828461037e565b955061046284610406565b935060208b019a505050600181019050610435565b50829750879450505050509392505050565b600060208201905081810360008301526104a4818486610413565b90509392505050565b6000819050919050565b6104c0816104ad565b81146104cb57600080fd5b50565b6000815190506104dd816104b7565b92915050565b6000602082840312156104f9576104f8610249565b5b6000610507848285016104ce565b91505092915050565b6000819050919050565b61052381610510565b82525050565b6000819050919050565b6000819050919050565b600061055861055361054e84610529565b610533565b6104ad565b9050919050565b6105688161053d565b82525050565b6000604082019050610583600083018561051a565b610590602083018461055f565b9392505050565b600080fd5b7f4e487b7100000000000000000000000000000000000000000000000000000000600052604160045260246000fd5b6105d482610340565b810181811067ffffffffffffffff821117156105f3576105f261059c565b5b80604052505050565b600061060661023f565b905061061282826105cb565b919050565b60008160070b9050919050565b61062d81610617565b811461063857600080fd5b50565b60008151905061064a81610624565b92915050565b600067ffffffffffffffff82169050919050565b61066d81610650565b811461067857600080fd5b50565b60008151905061068a81610664565b92915050565b60008160030b9050919050565b6106a681610690565b81146106b157600080fd5b50565b6000815190506106c38161069d565b92915050565b6000608082840312156106df576106de610597565b5b6106e960806105fc565b905060006106f98482850161063b565b600083015250602061070d8482850161067b565b6020830152506040610721848285016106b4565b6040830152506060610735848285016104ce565b60608301525092915050565b60006080828403121561075757610756610249565b5b6000610765848285016106c9565b9150509291505056fea264697066735822122050e458932ae736fbe205bfa51d9d3fe46ec7e3fd537d9985a0618a9bf6d29bdd64736f6c634300081b0033",
  "linkReferences": {},
  "deployedLinkReferences": {}
}